:100000000A128A11D72E00308A000408840A820757
:10001000003457344F3452344C3444340034483470
:0A00200045344C344C344F340034A6
:100DAE0083010A128A115C2FF400EE2E740884005F
:100DBE000A128A1103200A128A110A128A11FC26BB
:100DCE000A128A110130F3007308F407EE2E74082C
:100DDE0084000A128A1103200A128A110038031D98
:100DEE00F92EFA2EDD2EFB2E0800F2007208F0000E
:100DFE0004300310F00CFF3E031D002F70080F3956
:100E0E008312031386000814881008150430F100AD
:100E1E003D30F000F00B112FF10B112F162F831216
:100E2E000313081172080F3986000814881008156C
:100E3E000430F1003D30F000F00B232FF10B232F87
:100E4E00282F8312031308110800F2007208F00015
:100E5E0004300310F00CFF3E031D302F70080F39C5
:100E6E008312031386000810881008150430F10051
:100E7E003D30F000F00B412FF10B412F462F831226
:100E8E000313081172080F39860008108810081510
:100E9E000430F1003D30F000F00B532FF10B532FC7
:100EAE00582F8312031308110800F0308316031312
:100EBE00860083120313860183160313880183129F
:100ECE00031388010D30F600FB30F500F50B6D2F86
:100EDE00F60B6D2F722F02300A128A112C270A126E
:100EEE008A110430F6003D30F500F50B7C2FF60B21
:100EFE007C2F812F28300A128A112C270A128A1170
:100F0E000430F6003D30F500F50B8B2FF60B8B2FD2
:100F1E00902F0C300A128A112C270A128A110430D3
:100F2E00F6003D30F500F50B9A2FF60B9A2F9F2FFA
:100F3E0006300A128A112C270A128A110430F60082
:100F4E003D30F500F50BA92FF60BA92FAE2FAF2FC5
:100F5E0007300A128A11DB260A128A110230F700B4
:100F6E004430F600A930F500F50BBB2FF60BBB2F66
:100F7E00F70BBB2F640001300A128A112C270A12BC
:100F8E008A110230F7004430F600A930F500F50B57
:100F9E00CE2FF60BCE2FF70BCE2F640001300A1298
:100FAE008A11DB260A128A110230F7004430F6004D
:100FBE00A930F500F50BE12FF60BE12FF70BE12F22
:100FCE00640001300A128A112C270A128A1102308B
:100FDE00F7004430F600A930F500F50BF42FF60BB0
:100FEE00F42FF70BF42F6400AF2FAF2F0A128A11D4
:020FFE000028C9
:00000001FF
