:100000000A128A110E2F00308A000408840A82071F
:10001000003457344F3452344C3444340034483470
:0A00200045344C344C344F340034A6
:100E1C0083010A128A115B2FF100710883120313EC
:100E2C008700061086100615831203130611F9307D
:100E3C00F0006400F00B1F2F232F6400252F0800F7
:100E4C00F10071088312031387000614861006152F
:100E5C00831203130611F930F0006400F00B332FEA
:100E6C00372F6400392F0800F3004D2F73088400CE
:100E7C000A128A1103200A128A110A128A112627D1
:100E8C000A128A110130F2007208F3074D2F730811
:100E9C0084000A128A1103200A128A110038031DD9
:100EAC00582F592F3C2F5A2F0800831603138601F5
:100EBC008701831203138601870138300A128A11C5
:100ECC0012270A128A110430F5003D30F400F40B9D
:100EDC006D2FF50B6D2F722F0C300A128A11122701
:100EEC000A128A110430F5003D30F400F40B7C2F0B
:100EFC00F50B7C2F812F01300A128A1112270A124E
:100F0C008A110430F5003D30F400F40B8B2FF50BF7
:100F1C008B2F902F06300A128A1112270A128A116F
:100F2C000430F5003D30F400F40B9A2FF50B9A2F9A
:100F3C009F2F80300A128A1112270A128A1104304C
:100F4C00F5003D30F400F40BA92FF50BA92FAE2FB3
:100F5C00AF2F07300A128A113A270A128A1102306F
:100F6C00F6004430F500A930F400F40BBB2FF50B60
:100F7C00BB2FF60BBB2F640001300A128A1112270B
:100F8C000A128A110230F6004430F500A930F40040
:100F9C00F40BCE2FF50BCE2FF60BCE2F64000130B9
:100FAC000A128A113A270A128A110230F6004430CA
:100FBC00F500A930F400F40BE12FF50BE12FF60B43
:100FCC00E12F640001300A128A1112270A128A11C9
:100FDC000230F6004430F500A930F400F40BF42F85
:100FEC00F50BF42FF60BF42F6400AF2FAF2F0A1272
:040FFC008A1100282E
:00000001FF
